{"abi":[{"type":"function","name":"getSubmittedNames","inputs":[],"outputs":[{"name":"","type":"string[]","internalType":"string[]"}],"stateMutability":"view"},{"type":"function","name":"greet","inputs":[{"name":"name","type":"string","internalType":"string"}],"outputs":[{"name":"","type":"string","internalType":"string"}],"stateMutability":"nonpayable"},{"type":"function","name":"submittedNames","inputs":[{"name":"","type":"uint256","internalType":"uint256"}],"outputs":[{"name":"","type":"string","internalType":"string"}],"stateMutability":"view"}],"bytecode":{"object":"0x6080604052348015600f57600080fd5b506105e28061001f6000396000f3fe608060405234801561001057600080fd5b50600436106100415760003560e01c80637bb8187314610046578063de549c501461006f578063ead710c414610084575b600080fd5b610059610054366004610280565b610097565b60405161006691906102e9565b60405180910390f35b610077610143565b6040516100669190610303565b61005961009236600461037e565b61021c565b600081815481106100a757600080fd5b9060005260206000200160009150905080546100c290610437565b80601f01602080910402602001604051908101604052809291908181526020018280546100ee90610437565b801561013b5780601f106101105761010080835404028352916020019161013b565b820191906000526020600020905b81548152906001019060200180831161011e57829003601f168201915b505050505081565b60606000805480602002602001604051908101604052809291908181526020016000905b8282101561021357838290600052602060002001805461018690610437565b80601f01602080910402602001604051908101604052809291908181526020018280546101b290610437565b80156101ff5780601f106101d4576101008083540402835291602001916101ff565b820191906000526020600020905b8154815290600101906020018083116101e257829003601f168201915b505050505081526020019060010190610167565b50505050905090565b600080546001810182559080526060907f290decd9548b62a8d60345a988386fc84ba6bc95484008f6362f93160ef3e5630161025883826104c0565b508160405160200161026a919061057f565b6040516020818303038152906040529050919050565b60006020828403121561029257600080fd5b5035919050565b60005b838110156102b457818101518382015260200161029c565b50506000910152565b600081518084526102d5816020860160208601610299565b601f01601f19169290920160200192915050565b6020815260006102fc60208301846102bd565b9392505050565b6000602082016020835280845180835260408501915060408160051b86010192506020860160005b8281101561035c57603f198786030184526103478583516102bd565b9450602093840193919091019060010161032b565b50929695505050505050565b634e487b7160e01b600052604160045260246000fd5b60006020828403121561039057600080fd5b813567ffffffffffffffff8111156103a757600080fd5b8201601f810184136103b857600080fd5b803567ffffffffffffffff8111156103d2576103d2610368565b604051601f8201601f19908116603f0116810167ffffffffffffffff8111828210171561040157610401610368565b60405281815282820160200186101561041957600080fd5b81602084016020830137600091810160200191909152949350505050565b600181811c9082168061044b57607f821691505b60208210810361046b57634e487b7160e01b600052602260045260246000fd5b50919050565b601f8211156104bb57806000526020600020601f840160051c810160208510156104985750805b601f840160051c820191505b818110156104b857600081556001016104a4565b50505b505050565b815167ffffffffffffffff8111156104da576104da610368565b6104ee816104e88454610437565b84610471565b6020601f821160018114610522576000831561050a5750848201515b600019600385901b1c1916600184901b1784556104b8565b600084815260208120601f198516915b828110156105525787850151825560209485019460019092019101610532565b50848210156105705786840151600019600387901b60f8161c191681555b50505050600190811b01905550565b64023a69096160dd1b81526000825161059f816005850160208701610299565b919091016005019291505056fea26469706673582212203cdc53b3008be2033c5e84a65000768f5a90271b123d8880f978df7c2e4cf98664736f6c634300081a0033","linkReferences":{}},"methodIdentifiers":{"getSubmittedNames()":"de549c50","greet(string)":"ead710c4","submittedNames(uint256)":"7bb81873"},"id":20}